:020000040800F2
:1000000098160020F9010008010E000859080008A0
:10001000CB0D0008A105000895170008000000009E
:100020000000000000000000000000008D12000829
:10003000A505000800000000D1110008691600089D
:10004000130200081302000813020008130200083C
:10005000130200081302000813020008130200082C
:1000600013020008A9050008ED05000813020008A6
:10007000130200081302000813020008130200080C
:1000800013020008130200081302000813020008FC
:1000900013020008130200081302000813020008EC
:1000A000130200081D1700081302000813020008BD
:1000B00013020008130200081302000813020008CC
:1000C00013020008130200081302000813020008BC
:1000D00013020008130200081302000813020008AC
:1000E00013020008130200081302000800000000B9
:1000F00013020008130200080000000000000000C6
:1001000000000000000000000000000013020008D2
:10011000130200081302000813020008130200086B
:10012000130200081302000813020008130200085B
:1001300013020008000000000000000000000000A2
:100140000000000000000000000000001302000892
:100150001302000813020008000000001302000848
:10016000130200081302000813020008130200081B
:1001700013020008F5100008000000000000000055
:100180000000000013020008130200081302000818
:100190000000000013020008000000000000000042
:1001A000000000000000000000000000000000004F
:1001B0001302000800000000130200080000000005
:1001C000000000000000000000000000000000002F
:1001D0000000000000000000000000001302000802
:1001E000DFF810D000F08EF8004800479D2E000880
:1001F000AFF3008098160020064880470648004765
:10020000FEE7FEE7FEE7FEE7FEE7FEE7FEE7FEE7C6
:10021000FEE7FEE76D160008E10100082DE9F05F3A
:100220000546002092469B46884606468146402465
:100230001BE0284641464746224600F053F8534605
:100240005A46C01A914110D311461846224600F072
:100250003AF82D1A67EB01084F462246012000218B
:1002600000F031F817EB00094E41201EA4F1010403
:10027000DFDC484631462A464346BDE8F09F40EA67
:1002800001039B0703D009E008C9121F08C0042A14
:10029000FAD203E011F8013B00F8013B521EF9D2FB
:1002A0007047D2B201E000F8012B491EFBD2704723
:1002B0000022F6E710B513460A4604461946FFF732
:1002C000F0FF204610BD202A04DB203A00FA02F19C
:1002D000002070479140C2F1200320FA03F3194334
:1002E00090407047202A04DB203A21FA02F00021D6
:1002F000704721FA02F3D040C2F120029140084336
:1003000019467047064C074D06E0E06840F00103CF
:1003100094E8070098471034AC42F6D3FFF764FF27
:10032000B85A0008D85A000870B58C1810F8015B4C
:1003300015F0070301D110F8013B2A1106D110F87E
:10034000012B03E010F8016B01F8016B5B1EF9D182
:100350002B0705D40023521E0DD401F8013BFAE708
:1003600010F8013BCB1A921C03E013F8015B01F873
:10037000015B521EF9D5A142D8D3002070BD000008
:1003800000B58DB0142106A8FFF792FF002002905F
:1003900003900490059002A801F0E2FB012188057A
:1003A00001F05EFD01214E4801F05AFD01214FF49C
:1003B000401001F055FD684602F048F90120009018
:1003C00002208DF8060000208DF804008DF805004D
:1003D00001208DF807006946424802F041F90122E8
:1003E0000021404802F082F93F490298B0FBF1F049
:1003F0000121C1EB50003D490870052308460278F1
:100400000321012000F0BEFD0020394908700122BF
:1004100036480178900702F041FF00214FF08040FC
:1004200002F05BFF0121880702F05CFF0BA803F0DC
:1004300010F807208DF82C0001208DF831008DF880
:100440002F008DF82D008DF8320000208DF830003F
:100450008DF82E000BAA00214FF0804002F069FFBA
:100460002348027800214FF0804002F01FFF012155
:10047000880702F0F7FF01221102880502F037FF1A
:100480001C4801F01DFF4FF4B460ADF822001020AD
:10049000ADF820001848079000208DF827000120B3
:1004A0008DF825001548069001208DF826000020C3
:1004B0008DF8240001208DF829008DF8280006A968
:1004C0000C4801F0CCFE01210A4801F0B7FE3C22A5
:1004D0000849BC310748583801F0B5FE0DB000BDE1
:1004E000160030000000024000350C00980000208B
:1004F000990000205860024091080020340000401C
:1005000070B505460C460D480078B0B901200B497E
:10051000087000200A49087040210948401CFFF774
:10052000C7FE0748047022462946401CFFF7A7FE75
:1005300000221146034800F0C3FE70BD8000002079
:1005400050080020051100082DE9F04106460C4630
:10055000DFF8488008F104077868456A402C01DD1F
:10056000BDE8F081102085F8A000012005E0411EC3
:10057000725C05F1A0010A54401C611C8842F6D34C
:10058000384603F0D1FC032806D1234605F1A0022A
:100590008221384604F023F900BFE1E7DC040020A3
:1005A00000BFFEE77047000010B5082001F01AFFF9
:1005B000B0B108210B4802F090F801280DD11021AC
:1005C000084802F08AF8012807D107480078401C43
:1005D00040B20549087000F08CF8082001F0B0FE28
:1005E00010BD0000000402408C00002010B5102057
:1005F00001F0F8FEB0B110210B4802F06EF80128AE
:100600000DD10821084802F068F8012807D10748F1
:100610000078401E40B20549087000F055F81020DF
:1006200001F08EFE10BD0000000402408C0000208E
:1006300000B585B00121214801F012FC01212048BC
:1006400001F00EFC03A802F001F801208DF8130060
:1006500000208DF810008DF8120018200390022061
:100660008DF8110003A9174801F0FAFF04210120B9
:1006700002F0D0FC0321012002F0CCFC684601F01E
:1006800057FE01208DF8090000208DF80000182089
:10069000019000208DF80800684601F057FE032005
:1006A00002F0A4FC002201210A2002F03BFC0122FE
:1006B0001146092002F036FC05B000BD01003000F3
:1006C0000E004400000402401FB50020009001907D
:1006D0000290039000900190029003909DF80F000B
:1006E00040F020008DF80F000221684602F0F0FA79
:1006F0001FBD1FB500200090019002900390009054
:100700000190029003909DF80F0040F010008DF8CA
:100710000F000221684602F0DBFA1FBD014890F984
:10072000000070478C00002070B504460B48211D66
:10073000405C012809D1094BE51D5A5DA51D595D95
:10074000651D585D01F0F4FF06E00448211D405C82
:10075000022801D100F042F870BD000051080020CD
:10076000F0B5A1B006460D460024002768222146B8
:10077000641C01A8425404222146641C42540122F4
:100780002146641C42542146641C4554002007E065
:10079000335C2146621CD4B201AA5354411CC8B236
:1007A000A842F5DB002005E001A9095C3944CFB27D
:1007B000411CC8B2291D8842F6DB2046611CCCB220
:1007C00001A90F5416222046611CCCB201A90A547B
:1007D000402101A8FFF7B8FE21B0F0BD0EB54FF0E3
:1007E0000110029003208DF800000298000E8DF891
:1007F00001000298000C8DF802000298000A8DF8A2
:1008000003000298C0B28DF8040005216846FFF786
:10081000A7FF0EBD1CB501210D4801F021FB684664
:1008200001F014FF1020009000208DF806008DF8D4
:10083000040001208DF805008DF807006946054881
:1008400001F00EFF10200349183108601CBD0000A4
:10085000050030000014024000BFFEE710B5002084
:1008600021E01E2190FBF1F1C1EB01110F4A02EBD7
:1008700041011E2290FBF2F302FB1302052392FBBF
:10088000F3F202EB820211441E2290FBF2F302FB10
:100890001302052392FBF3F403FB14228A5C044B3E
:1008A000411C5A5488B23C28DBDB10BD2D000020CF
:1008B000310E00201CB501214FF4401001F0D0FA98
:1008C000684601F0C3FE01208DF8070000208DF876
:1008D000040001208DF806000220009001208DF810
:1008E00005006946294801F0BBFE042000906946D6
:1008F000264801F0B5FE082000906946234801F023
:10090000AFFE102000906946204801F0A9FE20208B
:10091000009069461D4801F0A3FE40200090694602
:100920001A4801F09DFE00208DF8060080200090FE
:1009300001208DF805006946144801F091FE012060
:1009400000906946124801F08BFE02200090694633
:100950000F4801F085FE0420009069460C4801F024
:100960007FFE4FF4006000906946084801F078FE71
:100970007E21064801F068FE4FF40861034801F04B
:1009800063FE0721024801F05FFE1CBD000002402B
:100990000004024010B50024FFF78CFF104800212E
:1009A000016081800F48016081800F480160818073
:1009B0000E480160818001200D4908700D4800F04B
:1009C0001CFAA52800D0022400F0DEFD022C03D181
:1009D000FFF744FF00F004FE00F018FE10BD000019
:1009E000140000201A000020200000202600002013
:1009F0002C00002000F803082DE9F04706460C46BD
:100A00004FF00009B046D8F80400456A207800F09D
:100A1000600078B3202879D16078801E0A2823D21C
:100A2000DFE800F012082222222222180E05A07808
:100A300028601DE001222946404603F06EFC17E0C5
:100A400060880012686013E00122291D404603F00F
:100A500064FC0DE0092085F85E00E28805F10C01D8
:100A6000404603F03CFC03E0404603F076FC00BF48
:100A700000BF4FE0FFE7607806280AD004DC0128B9
:100A80003CD003283CD13AE00A282CD00B2837D19F
:100A900030E060882221B1EB202F0DD1E08878284A
:100AA00001DD782000E0E08882461C4F524639463E
:100AB000404603F032FC15E060882121B1EB202F85
:100AC0000DD1E088092801DD092000E0E088824698
:100AD000134F52463946404603F01FFC02E04046A1
:100AE00003F03BFC10E0012205F10801404603F051
:100AF00014FC09E06088A86006E007E004E003E079
:100B0000404603F02AFC00BF00BF03E0404603F06C
:100B100024FC00BF00BF4846BDE8F087E801002084
:100B2000E002002010B5002211461A4800F0C8FB70
:100B300000223221184800F0C3FB0022642117482C
:100B400000F0BEFB00229621154800F0B9FB002200
:100B5000C821144800F0B4FB0022FA21124800F02A
:100B6000AFFB00224FF49671104800F0A9FB002261
:100B70004FF4AF710E4800F0A3FB00224FF4C87190
:100B80000C4800F09DFB00224FF4E1710A4800F090
:100B900097FB10BDBD0B0008CD0B0008DD0B000856
:100BA000ED0B0008FD0B00080D0C00081D0C0008E3
:100BB0002D0C00083D0C0008490D000810B5024836
:100BC00000F044F810BD00002F5A000810B502488C
:100BD00000F03CF810BD00003E5A000810B5024875
:100BE00000F034F810BD00004D5A000810B502485E
:100BF00000F02CF810BD00005C5A000810B5024847
:100C000000F024F810BD00006B5A000810B502482F
:100C100000F01CF810BD00007A5A000810B5024818
:100C200000F014F810BD0000895A000810B5024801
:100C300000F00CF810BD0000985A000810B50248EA
:100C400000F004F810BD0000A75A0008F8B50546EA
:100C50000024002600BF74E00A2094FBF0F100FBA2
:100C60001140C6B2052E32DA0E2C0EDC06EB460120
:100C700029440A88ADF8002089788DF80210611E99
:100C800088B2009900F0B4FA59E01A2C0EDC06EB99
:100C9000460129440A88ADF8002089788DF80210B1
:100CA000A11E88B2009900F0A3FA48E01D2C46DC92
:100CB00006EB460129440A88ADF8002089788DF8B2
:100CC0000210E11E88B2009900F092FA37E00E2C73
:100CD00010DCC6F1090101EB410129440A88ADF895
:100CE000002089788DF80210611E88B2009900F00A
:100CF0007FFA24E01A2C10DCC6F1090101EB410156
:100D000029440A88ADF8002089788DF80210A11EC8
:100D100088B2009900F06CFA11E01D2C0FDCC6F1CE
:100D2000090101EB410129440A88ADF800208978C6
:100D30008DF80210E11E88B2009900F059FA601C8B
:100D4000C4B2322C88DBF8BD08B5002000903121F8
:100D5000009A00F03EFA08BDF7B505460E4600249D
:100D6000284605EBD0714910A5EB410141B905EBCF
:100D7000D071491001EB810106EB4101CCB20AE0D0
:100D8000681E00EBD071491001EB8101C6F1090228
:100D900002EB4101CCB20E2C04DC611EC8B20299F8
:100DA00000F026FA102C06DB1A2C04DCA11E88B2F7
:100DB000029900F01DFA1C2C06DB1D2C04DCE11E40
:100DC00088B2029900F014FAFEBD00BFFEE710B52C
:100DD000044601F08BFB204601F068FB01F030FB7C
:100DE00010BD70B504460D4601F080FB2946204633
:100DF00001F00AFB01F024FB70BD01460878704742
:100E0000704770B500240EE00021204600F06FF816
:100E1000002504E0002000F047F9681CC5B2802DD1
:100E2000F8DB601CC4B2082CEEDB70BD70B500248A
:100E300006E0002500E06D1CB5F57A7FFBD3641C4D
:100E4000B4F57A7FF5D300F021FBAE2000F004F971
:100E5000D52000F001F9802000F0FEF8A82000F075
:100E6000FBF83F2000F0F8F8D32000F0F5F8002060
:100E700000F0F2F8402000F0EFF8A12000F0ECF8CC
:100E8000C82000F0E9F8DA2000F0E6F8122000F0BF
:100E9000E3F8812000F0E0F8CF2000F0DDF8D92061
:100EA00000F0DAF8F12000F0D7F8DB2000F0D4F8F9
:100EB000302000F0D1F8A42000F0CEF8A62000F0F9
:100EC000CBF88D2000F0C8F8142000F0C5F8AF2052
:100ED00000F0C2F8FFF795FF70BD10B50246012083
:100EE00000E050430B1EA1F10101FAD110BD70B515
:100EF00005460C46102141EA141000F0ADF804F04C
:100F00000F0000F0A9F845F0B00000F0A5F870BDA2
:100F10002DE9F04105460E461746721ED206110E07
:100F20006A1E5206100EFFF7E2FF002409E0A7F147
:100F30002001134A02EB0111085D00F0B5F8601CB6
:100F4000C4B2082CF3DB721ED206110E6A1E0123F6
:100F500003EB4202D0B2FFF7CAFF00240BE0A7F177
:100F60002001074A02EB011204F10801505C00F075
:100F70009BF8601CC4B2082CF1DBBDE8F0810000D6
:100F80003F5400082DE9F04780460E4617461D469F
:100F9000002415E0281B411E0A20FFF79EFFB7FB27
:100FA000F0F00A21B0FBF1F201FB120000F1300970
:100FB0003019C1B24A464046FFF7AAFF601CC4B2CE
:100FC000AC42E7DBBDE8F0872DE9F0478146884673
:100FD00015461E46002D06DB2B2241464846FFF7EC
:100FE00097FF2F4605E02D2241464846FFF790FF28
:100FF0006F42002417E0301B411E0A20FFF76DFFEF
:10100000B7FBF0F00A21B0FBF1F201FB120000F196
:10101000300A08EB0400401CC1B252464846FFF7B4
:1010200077FF601CC4B2B442E5DBBDE8F0872DE970
:10103000F04107460E461546002407E02A5D3019A8
:10104000C1B23846FFF764FF601CC4B2285D0028B7
:10105000F4D1BDE8F081000010B5044611480068E5
:1010600020F040000F4908600A2001F0BFF80D4849
:10107000006820F080000B4908600A2001F0B6F8F3
:10108000204600F089FB0A2001F0B0F8054800680E
:1010900020F040004030034908600A2001F0A6F823
:1010A00010BD00001404024010B50446104800684A
:1010B00020F040000E4908600A2001F097F80C4823
:1010C000006820F080008030094908600A2001F0A3
:1010D0008DF8204600F060FB0548006820F04000D5
:1010E0004030034908600A2001F080F810BD00007C
:1010F0001404024010B5024803F064FE10BD000065
:10110000DC0400202DE9F041002700240025A04642
:1011100000262D480078062804DA00202B490870A4
:10112000BDE8F081002009E02749491C095C6829D5
:1011300002D10127044605E0411CC8B222490978C2
:101140008142F1DC00BF27B11F480078001B062850
:1011500003DA00201D490870E2E71B48401CE11C2F
:1011600010F80180601D4044C5B217480078A842BD
:1011700003DC002015490870D2E71348401C405D8D
:10118000162803D0002011490870C9E7204606E060
:101190000D49491C095C3144CEB2411CC8B2691EDC
:1011A0008142F5DC681E0849491C085CB04203D046
:1011B000002006490870B3E72046FFF7B5FA002083
:1011C0000249087000BFABE75008002080000020F3
:1011D000704777B505460E4600242C4605E02046AC
:1011E000029900F005F8601C84B2B442F7DD7EBDC0
:1011F00013B50246322A00DD1CBD002012E09DF826
:101200000510C0F107040123A340194009B164216E
:1012100000E0222102EB42031B4C04EBC3031954F0
:10122000411CC8B20828EADB082012E09DF804102F
:10123000C0F10F040123A340194009B1642100E06B
:10124000222102EB4203104C04EBC3031954411C4E
:10125000C8B21028EADB102012E09DF80610C0F199
:1012600017040123A340194009B1642100E02221A1
:1012700002EB4203044C04EBC3031954411CC8B2F3
:101280001828EADB00BFB7E791080020704700008C
:1012900010B509A201210420FFF7C9FEFFF73EFAAD
:1012A000642190FBF1F201FB120403232246082182
:1012B0000420FFF789FE10BD566F6C756D653A000E
:1012C00070B503460C4600210BB9012070BD01E04A
:1012D000481CC1B201EB4100104D55F8200008B187
:1012E0002029F5DB202901D10120EFE701EB4100A6
:1012F0000A4D45F8203001EB410005EB8000848069
:1013000001EB410005EB8000C280002001EB4105AC
:10131000024E06EB850528810846D7E75C030020CE
:1013200000EB40010D4A52F8211001B9704700212D
:1013300000EB4002094B43F8221000EB400203EBA4
:101340008202918000EB400203EB8202D18000EB2D
:10135000400203EB8202118100BFE7E75C0300203B
:1013600010B500242BE004EB4400164901EB80008B
:101370000089002821DD04EB440051F8200028B149
:1013800004EB44010F4A52F82100804704EB44006B
:101390000C4901EB80000089401E04EB4401094A1E
:1013A00002EB8101088104EB4400114601EB80004F
:1013B000C08810B92046FFF7B3FF601CC4B2202CD0
:1013C000D1DB10BD5C030020002039E000EB4001C0
:1013D0001D4A52F8211019B300EB400102EB8101C4
:1013E0008988F1B900EB400102EB81010989491CB0
:1013F00000EB4002144B03EB8202118100EB400131
:101400001A4602EB8101C988002917DD00EB400173
:1014100002EB8101C98800EB400203EB820291805C
:101420000CE000EB4001084A02EB81018988491E6B
:1014300000EB4002044B03EB82029180411CC8B2D6
:101440002028C3DB704700005C030020002000BFA1
:1014500016E0002100EB40020B4B43F8221000EB9A
:10146000400203EB8202918000EB400203EB820218
:10147000D18000EB400203EB82021181411CC8B213
:101480002028E6DB704700005C0300201CB501212A
:101490004FF4401000F0E4FC0121384800F0E0FC7B
:1014A000684601F0D3F801208DF8070000208DF880
:1014B000040001208DF806000002009000208DF845
:1014C000050069462E4801F0CBF8202000906946BF
:1014D0002B4801F0C5F8402000906946284801F0EB
:1014E000BFF8802000906946254801F0B9F84FF414
:1014F000805000906946234801F0B2F8204814302B
:10150000006820F080001E49143108600846006819
:1015100020F0400008600846006820F020000860C5
:101520001848406920F48050164948611448143026
:10153000006820F480701249143108601148406935
:1015400020F4805000F580500E4948610A2000F0D8
:1015500013FE0C48406920F480500A49486132204B
:1015600000F00AFE0748406920F4805000F58050E2
:1015700004494861642000F0FFFD1CBD01003000FB
:10158000000402400000024010B51348FFF735FC8C
:10159000A52812D01048FFF71AFCA5210E48FFF726
:1015A00020FC012406E00C4960180021FFF719FC1B
:1015B000601C84B2B4F5007FF5DB002407E0064927
:1015C0006018FFF71AFC05490855601C84B2B4F591
:1015D000007FF4DB10BD000000F80308310E00208E
:1015E00010B50848FFF7F3FB002407E0064A115D39
:1015F000044AA018FFF7F5FB601C84B2B4F5007F25
:10160000F4DB10BD00F80308310E002010B50020F7
:1016100022E01E2190FBF1F1C1EB0111104A02EB17
:1016200041011E2290FBF2F302FB1302052392FB01
:10163000F3F202EB82020A441E2190FBF1F301FB5C
:101640001301052391FBF3F403FB1413054C411C18
:10165000615CD154411C88B23C28DADB10BD00002B
:101660002D000020310E00207047000010B52848E2
:10167000006840F4700026490860012000F028FA54
:101680002448006820F00100401C2249086000BF87
:1016900020480068C0F340000028F9D01D480830F9
:1016A000006820F003001B490831086000BF19489A
:1016B00008300068C0F381000028F8D14FF0804066
:1016C000144908310860134800681349084011495B
:1016D000086040F2C170091D08600E48A030006823
:1016E00000F4A0400B49A03108600846006840F4AF
:1016F000702008604FF41F0006490C31086000207C
:1017000000F0E6F94FF0006001498039086010BD33
:1017100088ED00E000380240FFFFF2FE10B5012125
:10172000054801F0F2FD28B1FFF74EFE0121024805
:1017300001F0E8FD10BD00000000014010B51348A5
:1017400000F00EFA01214FF4880000F089FB0F48E9
:10175000406842F21071B0FBF1F0441E22460921AC
:101760000B4801F09BFD0021094801F0B6FD012264
:101770001146074801F0D2FD00221146192001F060
:10178000D1FB0121024801F0ADFD10BD4C0300204A
:101790000000014000BFFEE770B505460A2000F0DA
:1017A00025FD00242EE01948006820F480701749B8
:1017B00008600A2000F01AFD05FA04F000F080002D
:1017C00050B11248006820F0200020300F49086016
:1017D0000A2000F00BFD08E00C48006820F0200013
:1017E0000A4908600A2000F001FD0848006820F45A
:1017F000807000F58070054908600A2000F0F6FC52
:10180000601CC4B2082CCEDB70BD00001404024082
:1018100002E008C8121F08C1002AFAD170477047B9
:10182000002001E001C1121F002AFBD17047000017
:1018300030B90A4A126822F00202084B1A6006E028
:10184000064A126822F00202921C044B1A60034AF4
:10185000126861F30002014B1A6070470474014082
:1018600001490860704700000C740140014908609C
:101870007047000010740140014908607047000083
:10188000147401401CB500200190032001F0AEFB50
:1018900002F0D6F901210A4800F0E2FA012001F035
:1018A000E7FD002211464D2001F03CFB0548064BA8
:1018B000012200210090054803F001FA1CBD000040
:1018C0001D003000D0000020A8000020DC04002013
:1018D00070B50446002526468121304602F0A6FE5A
:1018E0008221304602F0A2FE0221304602F09EFE26
:1018F000284670BD2DE9F047044600272546686854
:10190000466A05F533780021284603F03CF9814604
:10191000B8F8040001280DD196F85E00092809D115
:101920001FFA89F206F1E001204602F0A5F9002035
:1019300086F85E003846BDE8F08701460020704713
:1019400030B502460020144665686B6A012904D050
:10195000022903D0032906D104E005E0012583F81C
:101960005C5001E000E000BF00BF30BD2DE9F04158
:1019700004460D460026A046D8F80400476A05F044
:101980007F00012802D187F85D0007E005F07F00A5
:10199000022803D18221204603F018F83046BDE822
:1019A000F0812DE9F0410446002725466868466A23
:1019B000402303228121284602F058FE40230322BF
:1019C0008221284602F052FE4023032202212846AB
:1019D00002F04CFE402306F160020221284602F08C
:1019E00072FE012086F85D003846BDE8F0812DE9E1
:1019F000F04704460D464FF0000926467068476AD6
:101A00002946304603F0BFF8804605F07F000228E3
:101A10000ED11FFA88F207F16001204602F02CF97E
:101A20001FFA88F307F160020221304602F04BFEF4
:101A30004846BDE8F0872DE9F04105460C460026F2
:101A40002F46207800F01F00012802D0022812D172
:101A50000CE0A088012804D12146284600F0D2FAE3
:101A600003E021463846FEF7C7FF04E0214638462A
:101A7000FEF7C2FF00BF00BF3046BDE8F08101465F
:101A80000020704700B50346012000F021F805480A
:101A9000006863F3071003490860002000F018F89D
:101AA00000BD0000083802400349096860F38C213A
:101AB000014A116070470000083802400349096874
:101AC00060F34F31014A116070470000083802404E
:101AD000012807D10749096821F030013031054A52
:101AE000116005E00349096821F03001014A1160E5
:101AF00070470000A438024005282BD2DFE800F030
:101B0000030A11182100154A126861F30002134BF1
:101B10001A6020E0114A126861F310420F4B1A60FC
:101B200019E00E4A126861F318620C4B1A6012E059
:101B30000A4A7032126861F30002084B70331A606F
:101B400009E0064A7432126861F30002034B7433F1
:101B50001A6000E000BF00BF70470000003802407C
:101B60002DE9FF5F04464FF0000AD34600200390A2
:101B70000290019000250026814600F02BFA00908B
:101B8000009820B101281BD0022852D124E03B4804
:101B90000068C0F3803038B138480068C0F30030C6
:101BA00010B13748206001E0364820603348001DFE
:101BB0000068C0F30249206820FA09F020603BE089
:101BC000314820602D48001D0068C0F3C2492068DC
:101BD00020FA09F020602FE028489C380068C0F304
:101BE0008070029025489C380068C0F3881A23480A
:101BF0009C38006800F00F0B20489C380068C0F348
:101C000003402249085C0390029810B91D480190D6
:101C100001E01D48019003980BFB00FC0198A0FB1C
:101C20000A700146624600233846FEF7F7FA206044
:101C300002E01448206000BF00BF104898380068D8
:101C4000C0F303151248465D2068F04060600B4801
:101C500098380068C0F382250E48465D6068F04001
:101C6000E060064898380068C0F342350A48465D8F
:101C70006068F040A060BDE8FF9F0000A03802400F
:101C8000006CDC0200127A00001BB700FA53000857
:101C9000DA530008EA530008F253000810B5014671
:101CA0000020094B03EB1142D2F8002801F01F0479
:101CB0000123A3401A4001F01F040123A3409A42CC
:101CC00000D000E0012010BD0030024030B50024FB
:101CD000002500E0641C1120FFF7E0FF012802D07E
:101CE000B4F5405FF6D31120FFF7D8FF012801D0EB
:101CF000002500E00125284630BD00000CB5034654
:101D000029480068C0F3024001902748001F00687E
:101D1000C0F380300090042000F048F800BF00BFFE
:101D200000BF00BF00BF00BF00BF00BF00BF00BFBB
:101D300000BF00BF00BF00BF00BF00BF00BF00BFAB
:101D400000BF00BF00BF00BF00BF00BF00BF00BF9B
:101D500000BF00BF00BF00BF00BF00BF00BF00BF8B
:101D600000BF00BF00BF00BF00BF00BF0E48001F84
:101D7000006820F4804000F580400B49091F08608E
:101D80000846006863F30C3008609DF800100648B0
:101D9000001F006861F38E300349091F08609DF839
:101DA000040000F003F80CBDA438024003490968A0
:101DB00060F31241014A116070470000A4380240EC
:101DC00008B5034625480068C0F30240009004208F
:101DD000FFF7ECFF00BF00BF00BF00BF00BF00BFA8
:101DE00000BF00BF00BF00BF00BF00BF00BF00BFFB
:101DF00000BF00BF00BF00BF00BF00BF00BF00BFEB
:101E000000BF00BF00BF00BF00BF00BF00BF00BFDA
:101E100000BF00BF00BF00BF00BF00BF00BF00BFCA
:101E200000BF00BF0D48001F006820F4804000F58F
:101E300080400A49091F08600846006820F4805065
:101E400000F5805008600846006863F38E30086033
:101E50009DF80000FFF7AAFF08BD0000A43802406B
:101E600010B501290FD1104B03EB1042D2F8002816
:101E700000F01F040123A3401A430B4C04EB104352
:101E8000C3F800280EE0084B03EB1042D2F80028FC
:101E900000F01F040123A3409A43034C04EB1043BA
:101EA000C3F8002810BD000000300240F0B5044621
:101EB0000D4616461F4614B90120FFF71FFF0B48B9
:101EC000006864F39E70094908600846006865F37D
:101ED0008E1008600846006866F303000860084634
:101EE000006867F313400860F0BD0000043802404A
:101EF0000349096860F31651014A116070470000F8
:101F0000043802400349096860F35D71014A1160B9
:101F1000704700000438024000B50120FFF7D8FDEB
:101F20002148006820F00100401C1F49086000BFE4
:101F30001D480068C0F340000028F9D01A48083056
:101F4000006820F0030018490831086000BF1648F7
:101F500008300068C0F381000028F8D14FF08040BD
:101F600011490831086010480068104908400E49BE
:101F7000086040F2C170091D08600B48A03000687D
:101F800000F4A0400849A03108600846006840F409
:101F9000702008604FF41F0003490C3108600020D6
:101FA000FFF796FD00BD000000380240FFFFF2FE83
:101FB00000B503460120FFF78BFD0548006863F379
:101FC0000100034908600020FFF782FD00BD00000A
:101FD0000838024002480068C0F3810070470000E2
:101FE0000838024010B50446012C01D1FFF7E8FE85
:101FF0000348006864F38A200149086010BD0000AE
:10200000A43802402DE9F04706460C464FF000097F
:10201000B046D8F80400456A207800F06000002837
:1020200036D020287FD160780C282BD2DFE800F052
:102030002A2313092A2A2A2A2A190F06A078286097
:1020400024E001222946404602F067F91EE060883C
:10205000001268601AE00122291D404602F05DF975
:1020600014E0092085F85E00E28805F1E0014046B1
:1020700002F035F90AE0E28805F59071404602F079
:102080004CF903E0404602F068F900BF00BF4EE0A3
:10209000607806280AD004DC01283CD003283CD113
:1020A0003AE00A282CD00B2837D131E06088222171
:1020B000B1EB202F0DD1E0887E2801DD7E2000E0ED
:1020C000E08882461C4F52463946404602F025F9C8
:1020D00015E060882121B1EB202F0DD1E08809287F
:1020E00001DD092000E0E0888246144F524639465F
:1020F000404602F012F902E0404602F02EF910E0EC
:10210000012205F10801404602F007F909E00AE062
:102110006088A86005E004E003E0404602F01DF995
:1021200000BF00BF03E0404602F017F900BF00BF48
:102130004846BDE8F087000060020020E002002071
:1021400010B5042001F096F8074800680749B0FB75
:10215000F1F007490860084600684FF47A71484377
:102160000449086010BD00000000002040420F003C
:102170000400002008000020002131E032280ADDA0
:10218000194A126832235A434FF0E0235A61A0F1F2
:10219000320290B206E0144A126842434FF0E02344
:1021A0005A61002000224FF0E0239A611A4612691A
:1021B00042F001021A6100BF4FF0E022116901F004
:1021C00001021AB101F48032002AF5D04FF0E0226A
:1021D000126922F001024FF0E0231A6100229A6195
:1021E0000028CBD1704700000800002001460020E5
:1021F000114A12684A434FF0E0235A6100229A6163
:102200001A46126942F001021A6100BF4FF0E02243
:10221000106900F001021AB100F48032002AF5D0F2
:102220004FF0E022126922F001024FF0E0231A6120
:1022300000229A617047000004000020026861F3E8
:10224000000202607047D0F8003123F001035B1CEC
:10225000C0F800310B6862F306030B607047026838
:102260004BF6EF731A40026002680B891A43026052
:102270004B7C026863F30D320260CB7B026863F330
:102280008B2202608B7B026863F3092202604B7B26
:10229000026863F3C71202600B7B026863F3861265
:1022A00002600B7C026863F3451202604B8942684E
:1022B00063F30F0242600A6882604A68C260704736
:1022C0000021026822F001020260002202604260E6
:1022D0008260C260014640F2FF620A40B2F5C16FFF
:1022E0000DD2CAB2083A1423B2FBF3F293000F22C4
:1022F0009A400D4B5B681A430B4B5A6012E040F258
:10230000FF620A40B2F5D16F0CD2CAB2083A142368
:10231000B2FBF3F293000F229A40044B1B681A435E
:10232000024B1A60704700000060024004640240E3
:10233000002141724160012101720170704700006B
:102340000149086070470000143C0140014600202C
:102350004868234A12688243214B1A601A1D12688A
:1023600082431B1D1A604A7A0AB30A782AB91A1FD7
:10237000126802431B1F1A6006E0194A121D1268F8
:102380000243174B1B1D1A60154A0832126882431C
:10239000134B08331A601A1D126882431B1D1A6002
:1023A0000A7A2AB91A1F126802431B1F1A6016E024
:1023B0000A7A012A07D10A4A0C3212680243084BF2
:1023C0000C331A600BE0064A083212680243044BD1
:1023D00008331A601A1D126802431B1D1A607047E9
:1023E000003C0140014600200022064B1B6803EA26
:1023F0000102044B143B1B681A400AB1012000E0A3
:1024000000207047143C014070B504460D46032679
:102410000A48006820F00100401C08490860257047
:102420004FF4801000F030F806460448006820F0B1
:10243000010002490860304670BD0000103C0240B7
:102440000348006820F08000803001490860704730
:10245000103C024003200B49096801F0010109B159
:1024600000200EE007490968C1F3800109B101208D
:1024700007E004490968C1F3001109B1022000E036
:10248000032070470C3C024000B502460323FFF7CF
:10249000E1FF034603E0FFF7DDFF0346521E0BB9E1
:1024A000002AF8D102B90423184600BD30B504460D
:1024B00003250D48006820F00200801C0A490860CE
:1024C000081D0460001F006820F0400040300860D4
:1024D0008806FFF7D9FF05460348006820F0020090
:1024E00001490860284630BD103C024002480349BB
:1024F000086003480860704723016745043C0240B8
:10250000AB89EFCD10B5054905A002F02DFF0B49B1
:10251000088002484860084610BD00009411002061
:1025200044656570436F6F6C204B6579626F6172B3
:102530006420436F6E66696700000000440300205A
:102540000048704714030020004870470C03002027
:1025500010B5054905A002F007FF0B4908800248A5
:102560004860084610BD0000941100204465657065
:10257000436F6F6C204B6579626F61726420496EA6
:10258000746572666163650044030020004870470B
:102590002C03002010B5054905A002F0E5FE064910
:1025A000088002484860084610BD000094110020D1
:1025B000446565436F6F6C0044030020004870471A
:1025C0002403002010B5054905A002F0CDFE0849FE
:1025D000088002484860084610BD000094110020A1
:1025E000436F6F6C2D4B6579626F61726400000000
:1025F00044030020004870473C03002010B500F061
:1026000009F8014810BD000034030020004870475D
:102610001C03002070B50A480468001D0568001DF1
:102620000668344454B108220649204602F086FB6D
:10263000042204491031284602F080FB70BD0000DE
:10264000E8F7FF1FF2020020816170474FF6FF712B
:10265000016000218171017141710121C1717047D7
:1026600070B50A4600211488A3B233E003F00104D8
:102670006CB304684E000325B540AC430460947904
:102680004D00AC4005682C430460446801258D4032
:10269000AC434460446815798D402C4344608468A1
:1026A0004E000325B540AC438460D4794D00AC4066
:1026B00085682C438460C4684E000325B540AC4354
:1026C000C46054794D00AC40C5682C43C4605B10B5
:1026D0004C1CA1B2002BC9DC70BD0246002013695E
:1026E0000B408B4200D000E001207047F0B5002382
:1026F00000244D07ED0E02FA05F3CD105DB1456AD9
:102700004E07F70E0F26BE40B5434562456A45EABF
:10271000030444620AE0056A4E07F70E0F26BE4026
:10272000B5430562056A45EA03040462F0BD000092
:1027300070B506460C461546701E00EB8001044835
:102740000144601E0D54FEF789F8FEF749FF70BD85
:102750004B0000202DE9F04385B001274FF0000821
:102760000020019002900390049000250026002490
:102770008146FE48FE490A68026089888180FC48DB
:10278000002101608180002001900290039004905C
:102790004020F84988628021F648FFF79EFF70B913
:1027A000F348407940F00100F1494871F24800686F
:1027B000009000210520009AFEF7CEFA0BE0EF48CA
:1027C0000078012807D10020009000210520009A00
:1027D000FEF7C2FA00BF0121E948FFF77EFF78B992
:1027E000E348407940F00200E1494871E248001DA9
:1027F0000068009001210520009AFEF7ADFA0BE079
:10280000DE480078012807D1002000900121052032
:10281000009AFEF7A1FA00BF0221D948FFF75DFF39
:1028200078B9D348407940F00400D1494871D24882
:1028300008300068009002210520009AFEF78CFA0B
:102840000BE0CE480078012807D10020009002213B
:102850000520009AFEF780FA00BF0421C848FFF760
:102860003CFF78B9C248407940F00800C04948713F
:10287000C1480C300068009003210520009AFEF743
:102880006BFA0BE0BD480078012807D100200090CA
:1028900003210520009AFEF75FFA00BF4FF40061A4
:1028A000B448FFF71AFF78B9B148407940F01000FA
:1028B000AF494871B04810300068009004210520ED
:1028C000009AFEF749FA0BE0AC480078012807D1DE
:1028D0000020009004210520009AFEF73DFA00BF79
:1028E0004020A4498861A2480078A149497808435A
:1028F0009F49897808439E49C97808439C490979CA
:1029000008439B4949790843A8B99C4800780228A4
:1029100001D100F02FFA9B480088401C994908809B
:1029200008460088B0F5707F0BDB0020088002208D
:102930009249087005E000209249088001208F49E3
:10294000087000250CE08A48405D8F49485587484B
:10295000405D8749495D88438C494855681C85B26C
:10296000062DF0DB8148407900F0010088B18048F5
:10297000407900F0010060B985480078401C844926
:102980000870087800EBD0714910A0EB4101804A33
:1029900011707F48007838B97EA201210220FEF72D
:1029A00046FB01208049087079480078012807D14A
:1029B0007EA201210220FEF73AFB01207A4908702D
:1029C00079480078012804D17D480088401C7C4962
:1029D00008807B480088642809DB00207249087061
:1029E0007749088077A201210220FEF720FB5F488B
:1029F000002101608180002537E1002630E1644834
:102A00000078C0EB0010744901EB400005EB850134
:102A10000844845D5C48405D0121B1400840D8B164
:102A2000782C19DAE21704EB5272D21001AB9A5CDF
:102A30002146E31704EB5373DB10A4EBC30C012313
:102A400003FA0CF31A432046E31704EB5373DB102D
:102A50000DF1040C0CF803204C48405D0121B140FD
:102A6000084060B3782C01D07B2C28D1E21704EB0E
:102A70005272D21001AB9A5C2146E31704EB5373F8
:102A8000DB10A4EBC30C012303FA0CF31A4320461A
:102A9000E31704EB5373DB100DF1040C0CF8032067
:102AA0004E4800780A2804DA4C480078401C4B490C
:102AB00008704A480078022801D14FF001083348D5
:102AC000415D0120B040014059B3792C29D14448DF
:102AD000007818B9012042490870804641480078C2
:102AE000022801D14FF00108E21704EB5272D21014
:102AF00001AB9A5C2146E31704EB5373DB10A4EBA4
:102B0000C30C012303FA0CF31A432046E31704EB2A
:102B10005373DB100DF1040C0CF803200120314934
:102B200008701A48405D0121B1400840E0B17A2C9C
:102B300069D12B48007818B90120294908708046CE
:102B400028480078012800D18046E21704EB527231
:102B5000D21001AB9A5C2146E31704EB5373DB10F0
:102B6000A4EBC30C01233FE04DE000001A0000205D
:102B700014000020000002402C54000869000020CE
:102B8000000402406C0000202000002026000020ED
:102B90002C00002044656661756C74206C61796559
:102BA00072202020000000006A000020437573742A
:102BB0006F6D20206C61796572202020000000007C
:102BC0006E000020202020202020202020202020F7
:102BD00020202020000000002D0000207300002095
:102BE000720000207400002003FA0CF31A43204600
:102BF000E31704EB5373DB100DF1040C0CF8032006
:102C000002202F4908702F48405D0121B140084043
:102C100020B37B2C22DD4FF001092B4800780328DC
:102C20001CDD002028490870E21704EB5272D21014
:102C300001AB9A5C2146E31704EB5373DB10A4EB62
:102C4000C30C012303FA0CF31A432046E31704EBE9
:102C50005373DB100DF1040C0CF80320701C86B2CA
:102C6000052EFFF6CCAE681C85B2062DFFF6C5AE6C
:102C7000B9F1010F06D14FF0000913480078401C4C
:102C8000114908709DF8130000B102270D4800217A
:102C9000016081800D4801608180394601A800F003
:102CA00017F8B8F1010F07D14FF41670FFF79EFA2D
:102CB000394601A800F00CF805B0BDE8F08300002B
:102CC000740000202000002070000020260000205A
:102CD00070B504460D46054801F026F9032804D1D5
:102CE0002A462146014800F003F870BDE0040020A8
:102CF0002DE9F04706460F4690460025B146D9F823
:102D00000400446A0020E06420656065A065B8F1B5
:102D1000010F03D0B8F1020F1AD112E0012084F89C
:102D20004C0000250AE0012D00D105E07A5D04F198
:102D30004C00691C425400BF681CC5B20F2DF2DB69
:102D400007E0022084F84C00F97B4D20015500E09B
:102D500000BF00BF94F85D00012808D1002084F86E
:102D60005D00102204F14C01304600F0BAFFBDE8CE
:102D7000F087000000B587B045480078022810DAD7
:102D800001204449087044480078401C42490870BA
:102D900008460078052190FBF1F201FB12003E4944
:102DA00008703B480078C82802DD002039490870C7
:102DB0003848007828B136480078801C34490870BB
:102DC00004E033480078801E3149087032480078AA
:102DD00005284ED2DFE800F00315253541002C48C8
:102DE00000788DF818002A4800788DF819002848D6
:102DF00000788DF81A0031210020069AFEF7E9F9D3
:102E000043E000200590224800788DF81400204807
:102E100000788DF8160031210020059AFEF7D9F9C7
:102E200033E0002004901A4800788DF8110018480B
:102E300000788DF8120031210020049AFEF7C9F9BC
:102E400023E000200390124800788DF80E00312115
:102E50000020039AFEF7BDF917E0002002900C480D
:102E600000788DF8090031210020029AFEF7B1F9AF
:102E70000BE000200190064800788DF80400312115
:102E80000020019AFEF7A5F900BF00BF07B000BD02
:102E90009A0000209B0000209C000020032000F0EE
:102EA000A5F800F011F9FFF74BF9FEF747FCFEF724
:102EB000CDFAFDF7AFFCFDF7B9FFFDF7B9FBFDF764
:102EC0005FFAFEF7DFFCFDF765FDFDF79AFF0DA247
:102ED00001210846FEF7ABF8002211460E48FEF726
:102EE000EFF914224FF4FF710C48FEF7E9F9322292
:102EF0004FF4FA710A48FEF7E3F901E0FEF730FA01
:102F0000FCE700002020202044454550434F4F4C13
:102F10002020202000000000250B00085527000875
:102F2000911200082DE9F0470B4614464FF0000CB3
:102F300000BF2C4A1268C2F302211D4626460A46EB
:102F4000C2F10709B9F1040F02D94FF0040901E0F9
:102F5000C2F10709C84602F10409B9F1070F02D20C
:102F60004FF0000901E0A2F103094F464FF00109BB
:102F700009FA08F9A9F1010909EA050909FA07F9A5
:102F80004FF0010A0AFA07FAAAF1010A0AEA060A48
:102F900049EA0A09CC4601466246002904DB1507C6
:102FA0002E0E114D6E5407E015072F0E0D4D0C35EA
:102FB00001F00F06361FAF5500BF014600290DDB9B
:102FC00000BF00BF01F01F050122AA404D09AD005E
:102FD00005F1E025C5F8002100BF00BF00BFBDE836
:102FE000F08700000CED00E000E400E000BF00F01E
:102FF0000702064B19684FF6FF031940044B0B43B9
:1030000043EA0221014B196000BF70470CED00E05C
:103010000000FA0510B500228B071C0F0F2303FADE
:1030200004F28B1033B1012B13D0022B23D0032BCE
:1030300045D132E0234B1B689343224C2360234647
:103040001B688C07240F00FA04F423431D4C2360F3
:1030500036E01C4B1B1D1B6893431A4C241D236038
:1030600023461B688C07240F00FA04F42343154CF5
:10307000241D236024E0134B08331B689343114C39
:103080000834236023461B688C07240F00FA04F4DD
:1030900023430C4C0834236012E00A4B0C331B68AA
:1030A0009343084C0C34236023461B688C07240F81
:1030B00000FA04F42343034C0C34236000E000BF07
:1030C00000BF10BD0838014010B5FEF725FF4FF4D2
:1030D000AB702149086001212048FEF7C1FE20485D
:1030E000006920F00300C01C1D4908610121084649
:1030F000FEF702FD00BFFEF7E9FD0028FBD002232A
:10310000012248211046FEF7D1FE0520FEF7F0FE11
:1031100001210220FEF7F0FC00BF1920FEF7BEFDE2
:103120000128FAD10020FEF7ADFC0020FEF7C6FC16
:103130000420FEF7B9FC0120FEF7CAFC0220FEF7CE
:1031400037FF00BFFEF746FF0228FBD10020FEF745
:10315000BFFC00F007F810BD003C02401C0040001E
:10316000007000402DE9F84F002500260027A846F2
:10317000A946AA46AB460024FEF72CFF0090009813
:1031800020B101281ED0022850D128E03248006822
:10319000C0F3803040B130480068C0F3003018B14F
:1031A0002E482F49086002E02E482D4908602A4821
:1031B000001D0068C0F3024429480068E040284927
:1031C000086037E02848264908602348001D006849
:1031D000C0F3C24408460068E04008602AE01E4888
:1031E0009C380068C0F380781B489C380068C0F3A6
:1031F000881519489C38006800F00F0616489C385E
:103200000068C0F3034019490F5CB8F1000F02D108
:10321000DFF8509001E0DFF8509009FB05F006FB65
:1032200007F1B0FBF1F00E49086003E00D480C49CE
:10323000086000BF00BF084898380068C0F3031A50
:103240000B4810F80AB00648006820FA0BF0044951
:103250000860BDE8F88F0000A0380240006CDC0276
:103260000000002000127A00001BB7001A5400086A
:103270000A540008042808D14FF0E021096941F000
:1032800004014FF0E022116107E04FF0E0210969ED
:1032900021F004014FF0E02211617047C1628262A7
:1032A000436923F001035B1C4361704710B50B4673
:1032B000082B0FD2DFE803F0040E060E080E0A0CEE
:1032C000426308E0826306E0C26304E0026402E055
:1032D000426700E000BF00BF10BD026861F3061244
:1032E00002607047026861F3000202607047012AC1
:1032F00003D1C3680B43C36003E012B9C3688B43B7
:10330000C3607047CA4302617047024600201369D8
:103310000B400BB1012000E000207047012A03D1CF
:10332000C3680B43C36003E012B9C3688B43C36037
:10333000704730B50B4633B1022B28D0042B4AD04E
:10334000062B7ED16BE05578446865F30824446011
:103350009578446865F3492444601578846965F379
:1033600006148461D578046A65F341040462157912
:10337000046A65F3C30404625579046A65F30004C2
:1033800004629579046A65F3820404625FE055780B
:10339000446865F38A2444609578446865F3CB24D7
:1033A00044601578846965F30E348461D578046AC5
:1033B00065F3451404621579046A65F3C714046261
:1033C0005579046A65F3041404629579046A65F317
:1033D000861404623BE05578446865F30C3444601D
:1033E0009578446865F34D3444601578C46965F395
:1033F0000614C461D578046A65F34924046215791A
:10340000046A65F3CB2404625579046A65F30824E1
:1034100004629579046A65F38A24046217E055789A
:10342000446865F38E3444601578C46965F30E34DE
:10343000C461D578046A65F34D3404625579046A31
:1034400000E003E065F30C34046200E000BF00BF5D
:1034500030BD0021017041708170C17001714171F6
:1034600081717047426C61F3CF3242647047000053
:1034700010B50446BCB90120FEF7B4FD0121104887
:10348000FEF7EEFC41F62C70FEF7EAF94FF4FA5025
:10349000FEF7ECF941F65470FEF7EEF90121022037
:1034A000FEF7C6F90BE00120FEF72CFD00BF1A2045
:1034B000FEF7F4FB0128FAD10020FEF793FD10BDC2
:1034C0001D00440040F60401095821F0020240F6B4
:1034D00004010A507047024682F8241340F22D304E
:1034E00081540023801C8354801C835440234FF458
:1034F0004A7083520823401E83544FF4A073C01CAB
:103500008352012902D10223801C8354012340F2FB
:1035100031308354002340F225308354002070471B
:1035200010B50446A0B2FEF727FE10BD40F6040118
:10353000095821F00201891C40F60402115070471D
:103540004FF410610958CA0AD2024FF410610A50B0
:1035500040F60401095821F4807240F604010A5033
:103560007047014601F5306002680123B3EBD27F5A
:1035700000D17047002202610123026963F3DC423B
:10358000026102696FF3120218320261026922F0CD
:10359000C04202F1C042026100BFEAE710B58A787A
:1035A00012BB0A7800F5106303EB4212126822F492
:1035B00000140A7803EB42121460CA78032A02D07E
:1035C000CA78022A32D10A7800F5106303EB42125E
:1035D000126822F0805202F180520B7800F51064DC
:1035E00004EB43131A6021E00A7800F5306303EB23
:1035F0004212126822F400140A7803EB421214609B
:10360000CA78032A02D0CA78022A0FD10A7800F5B4
:10361000306303EB4212126822F0805202F18052B2
:103620000B7800F5306404EB43131A6010BD10B53D
:103630008A78EABB40F61C0212580C780123A3409A
:103640009A4340F61C031A500A7800F5106303EB06
:10365000421212680123B3EBD27F1CD10A7800F525
:10366000106303EB4212126822F0804202F18042A2
:103670000B7800F5106404EB43131A600A782346B4
:1036800003EB4212126822F0006202F100620B7832
:1036900004EB43131A600A7800F5106303EB42123F
:1036A000126822F400440A7803EB421214603EE0F0
:1036B000FFE740F61C0213580C780122A24023EACF
:1036C000024340F61C0213500A7800F5306303EB06
:1036D000421212680123B3EBD27F1CD10A7800F5A5
:1036E000306303EB4212126822F0804202F1804202
:1036F0000B7800F5306404EB43131A600A78234614
:1037000003EB4212126822F0006202F100620B78B1
:1037100004EB43131A600A7800F5306303EB42129E
:10372000126822F400440A7803EB4212146010BDC0
:1037300010B50146002000BF37E000EB400202EB6D
:10374000C00301F10C0202F8230000EB400202EB7F
:10375000C00301F10C0202EB83025070002300EB66
:10376000400202EBC00401F10C0202EB84029370F0
:1037700000EB400202EBC00401F10C0202EB8402F8
:10378000936000EB400202EBC00401F10C0202EB7B
:103790008402536100EB400202EBC00401F10C0211
:1037A00002EB84029361421CD0B20828C5DB0020E2
:1037B00038E000EB400202EBC00301F5B67202F8FC
:1037C000230000EB400202EBC00301F5B67202EBEE
:1037D00083025070012300EB400202EBC00401F5AC
:1037E000B67202EB84029370002300EB400202EBFE
:1037F000C00401F5B67202EB8402936000EB400254
:1038000002EBC00401F5B67202EB8402536100EBD7
:10381000400202EBC00401F5B67202EB8402936130
:10382000421CD0B20828C4DB10BD00F5106303EBC6
:1038300041139A60704730B502464FF40165AB58AA
:1038400040F63405AC5824FA01F505F0010543EAC9
:10385000C51302F5106505EB4115AD6805EA0300D7
:1038600030BD30B500220B788BB98B68402B00D16E
:103870000DE08B68202B01D1012208E08B68102B12
:1038800001D1022203E08B68082B00D10322CB7800
:10389000012B07D140F604031B5843F4004440F6C3
:1038A00004031C508B78002B61D140F61C031B587D
:1038B0000D780124AC40234340F61C0423500B78C0
:1038C00073B90B7800F5106404EB43131B6862F3C3
:1038D0000A030C7800F5106505EB441423600EE034
:1038E0000D890B7800F5106404EB43131B6865F336
:1038F0000A030C7800F5106505EB44142360CD78BD
:103900000B7800F5106404EB43131B6865F39343D5
:103910000C7800F5106505EB441423600D7800F574
:10392000106404EB45131B6865F399532C4600F5AE
:10393000106505EB441423600B782C4604EB43130D
:103940001B6823F0805303F180530C7805EB44147B
:1039500023600B782C4604EB43131B6823F40044CC
:1039600004F500440B7805EB43131C6053E040F66C
:103970001C031C580D780123AB4044EA034440F675
:103980001C031C500B7873B90B7800F5306404EB02
:1039900043131B6862F30A030C7800F5306505EBEE
:1039A000441423600EE00D890B7800F5306404EBBD
:1039B00043131C6865F30A040B7800F5306505EBCA
:1039C00043131C60CD780B7800F5306404EB43138F
:1039D0001B6865F393430C7800F5306505EB4414E0
:1039E00023600B782C4604EB43131B6823F08054B0
:1039F00004F180540B7805EB43131C600B782C46C4
:103A000004EB43131B6823F4004303F500430C78D5
:103A100005EB4414236030BD00F5306303EB411324
:103A20009A607047024602F5306000EB41108368EF
:103A300040F6140080581840704710B58A7812BBC1
:103A40000A7800F5106303EB42121268D20F4AB9EC
:103A50000A7803EB4212126822F080440A7803EBE2
:103A6000421214600A7800F5106303EB42121268E8
:103A700022F4001202F500120B7800F5106404EB3A
:103A800043131A6021E00A7800F5306303EB421219
:103A90001268D20F4AB90A7803EB4212126822F078
:103AA00080440A7803EB421214600A7800F5306310
:103AB00003EB4212126822F4001202F500120B7896
:103AC00000F5306404EB43131A6010BD0021026955
:103AD00022F010021032026105E00A46491C054B33
:103AE0009A4200D904E00269C2F30012002AF4D11C
:103AF00000BF7047400D030010B50022036961F359
:103B00008A130361036923F020032033036105E076
:103B10001346521C054CA34200D904E00369C3F3C9
:103B20004013002BF4D100BF10BD0000400D030076
:103B3000014640F618004258001D4058104080B21F
:103B40007047014640F618004258001D405810408A
:103B5000000C70474161704701464A69886910400E
:103B6000704730B504464FF6FF75A06B20F48030E7
:103B700000F58030A06300BF281EA5F10105FBD130
:103B8000204600F00BF830BD012A03D183690B43B6
:103B9000836102E083698B438361704701460022A1
:103BA00005E01046521C0F4B984200D903E008690B
:103BB000C00F0028F5D000BF0022086920F00100E6
:103BC000401C086105E01046521C064B984200D983
:103BD00004E0086900F001000028F4D100BF0120D2
:103BE00070470000E09304000146012901D102481A
:103BF00070474FF0A040FBE70000044049B9C2689D
:103C000022F00052C260C26822F0804202F180427B
:103C1000C260012909D1C26822F08042C260C26834
:103C200022F0005202F10052C260022907D1C2689C
:103C300022F08042C260C26822F00052C260704727
:103C40001CB501210B48FEF70BF96846FEF7FEFC98
:103C500001208DF8070000208DF8040002208DF867
:103C6000060000208DF8050001210248FEF7F8F853
:103C70001CBD0000010030002DE9F04705460E464E
:103C80001746A946D9F80400D0F8248030780228D5
:103C900006D0032805D0042804D0102812D102E051
:103CA00011E010E00FE0002404E0315D08F1A00015
:103CB0000155641CBC42F8D3F9B208F1A000FCF72E
:103CC0001FFC00E000BF00BFBDE8F087816821F065
:103CD000010181607047816821F00101491C816008
:103CE00070472DE9F04104460D4616460027A046D0
:103CF000404600F019F9032805D133462A468121B0
:103D0000404600F06CFD3846BDE8F081D0F8001E5A
:103D100021F00101C0F8001E7047F0B51746DD1C08
:103D20004FEAE57C05EB9C7C4FEAAC060C46002292
:103D300005E04FF480552D582560241D521CB242D9
:103D4000F7D3F0BDD0F8002861F30A12C0F80028BC
:103D5000704741627047F0B5134600240022426A62
:103D600019B942EA0345856215E0856A02EB1542FE
:103D7000002407E000F5827555F8245002EB154247
:103D8000651CECB24D1EA542F4DC42EA034700F587
:103D9000827646F82570F0BDD0F8001E21F00101B2
:103DA000491CC0F8001E7047014640F60800405804
:103DB00000F0010070472DE9F04780460E46D8F824
:103DC000007006EB460000EBC60108F10C0000EBAA
:103DD0008104D4E90601451A4FF00009A068A84201
:103DE00000D2A568E81C4FEA900915E0D4E9060165
:103DF000451AA068A84200D2A568E81C4FEA9009BD
:103E0000ABB2B2B23846616900F021F8606928446B
:103E10006061E0692844E06107F5106000EB46103E
:103E2000806980B2484506D9D4E90610884202D29A
:103E3000A0690028DAD145B940F63400C059012103
:103E4000B140884340F63401C851BDE8F087F0B571
:103E5000DE1C4FEAE67C06EB9C7C4FEAAC070D4685
:103E6000002409E000F5805606EB0236D5F800C0C4
:103E7000C6F800C02D1D641CBC42F3D3F0BD70B564
:103E80000446002504F5337694F80803022802D08E
:103E9000032817D100E000BF7088012811D100204D
:103EA00084F80B03D4F8140320F00200C4F81403C0
:103EB000606804F53371826820469047204600F020
:103EC00040FA03E0204600F048FA00BF00BF284651
:103ED00070BD2DE9F04104460D46276805F08000CD
:103EE00050B105F07F0000EB400101EBC00104F18F
:103EF0000C0000EB810609E005F07F0000EB4001BB
:103F000001EBC00104F5B67000EB8106314638467E
:103F1000FFF744FB00207073BDE8F08110B5044644
:103F20002068FFF7CFFA10BD014691F808037047EB
:103F300070B505460E4606F07F0000EB400101EB30
:103F4000C00105F10C0000EB8104002E54D195F85E
:103F5000040302283FD1A168606A884211D9A16890
:103F6000606A401A6062A168606A884201D2606A31
:103F700000E0A06883B200212846626900F02FFCAF
:103F800029E0A168206A884217D1A168A06A884206
:103F900013D3B5F80613A06A88420ED2002020621F
:103FA00000231A461946284600F019FC00231A4639
:103FB0003146284600F087FB0DE06868C06838B1DC
:103FC00095F80803032803D16868C1682846884724
:103FD000284600F096F995F81C03C8B195F81C1313
:103FE0002868D0F8040861F306102968C1F80408AD
:103FF000002085F81C030BE06868406940B195F823
:104000000803032804D1686831464269284690476E
:1040100070BD00002DE9FF5F05468A46C5F800A087
:10402000564606F50064B06C00F0C00B012085F820
:1040300008030E9830B9BBF1000F03D0002085F8BB
:10404000050302E0012085F80503002085F80A0336
:10405000029868600398A860002085F81C03284631
:1040600000F0C6F92846FFF763FB3046FFF72EFE47
:104070003046FFF776FDD5F81803012807D1BBF1CC
:10408000000F04D0B06840F02600B06002E00020CD
:10409000C5F8180300213046FFF7B0FD1920FFF7DF
:1040A0003FFA2868FFF732FE206820F4C0502060F5
:1040B0000E9838B9BBF1000F04D0206820F003003F
:1040C00020600DE0BBF1C00F05D1206820F0030097
:1040D000401C206004E0206820F00300C01C206029
:1040E00010213046FFF708FD3046FFF7EFFC4FF098
:1040F000FF30A0610020E06120616061002705E0E1
:10410000002106F5827040F827107F1C082FF7D396
:10411000284600F0F7FB002725E006F5106000EBCD
:104120004718D8F80000C00F98B10020C8F8000068
:10413000D8F8000020F0804000F18040C8F800006E
:10414000D8F8000020F0006000F10060C8F800001E
:1041500002E00020C8F800000020C8F81000FF208E
:10416000C8F808007F1C082FD7D3002725E006F5E4
:10417000306000EB4719D9F80000C00F98B100205B
:10418000C9F80000D9F8000020F0804000F180401C
:10419000C9F80000D9F8000020F0006000F10060CC
:1041A000C9F8000002E00020C9F800000020C9F8AA
:1041B0001000FF20C9F808007F1C082FD7D3206902
:1041C00020F4807000F5807020610020B0616FF0F5
:1041D000804070610A48B061D5F8180310B1BBF196
:1041E000000F03D1B06940F01000B0612846FFF71E
:1041F00095FE3046FFF76FFD002004B0BDE8F09F4C
:104200000C383C8070B505460E4606F07F0000EB8A
:10421000400101EBC00105F5B67000EB810426BB3F
:1042200095F8040303282CD1A168606A884211D94B
:10423000A168606A401A6062A168606A884201D21F
:10424000606A00E0A06883B231462846626900F0E7
:104250003AFA16E06868006918B16868016928468A
:104260008847284600F06DF80BE06868806940B127
:1042700095F80803032804D1686831468269284606
:10428000904770BD70B504460D4604F5357104F5D0
:10429000337001F02FF8012084F8040340F2D2209B
:1042A000005BA4F8060394F8CC0200F01F0020B1D4
:1042B000012806D002280CD107E0204600F058F86B
:1042C0000BE0204600F059FD07E0204600F096F88C
:1042D00003E0204600F041F800BF00BF70BDF0B51C
:1042E00005460E46144605F5B677BC627C6203208F
:1042F00085F80403234632460021284600F0E3F9FE
:10430000F0BD10B50446052084F8040300231A46C6
:104310001946204600F0D7F910BD2DE9F0410546B9
:104320000E46144605F10C07BC627C62022085F83B
:104330000403234632460021284600F050FABDE827
:10434000F08110B50446042084F8040300231A46C3
:104350001946204600F043FA10BD10B5044600216E
:10436000204600F0A2FF8021204600F09EFF10BDF5
:1043700070B50446002504F53376307800F060000F
:1043800038B1606804F5337182682046904728464A
:1043900070BD40F2CD20005D0A2822D2DFE800F097
:1043A0000509210D21111521191D204600F0F9FBE9
:1043B0001BE02046FFF763FD17E0204600F02CFFCE
:1043C00013E0204600F08EFE0FE0204600F032FBA6
:1043D0000BE0204600F003FB07E0204600F0B0FEB3
:1043E00003E02046FFF7B9FF00BF00BF2846CFE734
:1043F00010B504462068FFF799F810BD2DE9F0418B
:1044000004464FF0000804F533773D79387800F022
:10441000600040B1606804F53371826820469047BF
:104420004046BDE8F081787820B101285DD00328AE
:104430007DD183E094F80803022802D003284ED1EE
:1044400027E005F07F0018B12946204600F02DFF37
:1044500005F0800050B105F07F0000EB400101EB5A
:10446000C00104F10C0000EB810609E005F07F00BB
:1044700000EB400101EBC00104F5B67000EB8106D2
:1044800000203061022206F110012046FFF745FFAF
:1044900029E005F0800050B105F07F0000EB4001FD
:1044A00001EBC00104F10C0000EB810609E005F00E
:1044B0007F0000EB400101EBC00104F5B67000EB9A
:1044C0008106707B012801D1306101E0002030615C
:1044D000022206F110012046FFF71FFF03E02046ED
:1044E000FFF73BFF00BF00BF54E094F80803022829
:1044F00002D003281CD107E02DB1802D03D029461E
:10450000204600F0D2FE17E0788878B905F07F00E9
:1045100048B129462046FFF7DCFC606804F533719A
:104520008268204690472046FFF70BFF04E02DE00D
:104530002046FFF712FF00BF00BF2BE094F80803EE
:10454000022802D003281BD107E02DB1802D03D013
:104550002946204600F0A9FE16E0788830B92DB132
:10456000802D03D02946204600F09FFE606804F5A8
:1045700033718268204690472046FFF7E2FE03E051
:104580002046FFF7EAFE00BF00BF03E02046FFF72A
:10459000E4FE00BF00BF404643E710B50446206874
:1045A000FFF702FC012802D12068FFF7F5FB10BDE0
:1045B00070B50446256840F608004059C0F3410034
:1045C00048B9002084F80503E86820F4705000F52D
:1045D0001050E86008E0012084F80503E86820F442
:1045E000705000F5A050E8600021204600F01EF851
:1045F0008021204600F01AF8402300221146204670
:1046000000F034F8402300228021204600F02EF8EC
:104610002846FEF795FF012084F80803606840688B
:1046200018B1606841682046884770BD70B504467F
:104630000D4605F0800050B105F07F0000EB400111
:1046400001EBC00104F10C0000EB810609E005F06C
:104650007F0000EB400101EBC00104F5B67000EBF8
:10466000810631462068FEF7E2FF70BD2DE9F04774
:1046700005460E4617469846D5F8009006F080008D
:1046800060B906F07F0000EB400101EBC00105F5C9
:10469000B67000EB81040120A0700BE006F07F00F3
:1046A00000EB400101EBC00105F10C0000EB8104BF
:1046B0000020A070C4F80880E77021464846FFF744
:1046C000D0F8BDE8F0872DE9F04305460C461646C4
:1046D0002F6804F07F0808EB480909EBC80905F5C5
:1046E000B67808EB890191F8008007F5306909EB8D
:1046F000481007F5006C4E618B614FF00008C1F85F
:104700001C8004F07F08B8F1000F05D1002B03DDF9
:10471000D1F80880C1F81880D1F81880B8F1000FDE
:1047200004D004F07F08B8F1000F10D1D1F8089040
:10473000D0F8108069F31208C0F810804FF001091A
:10474000D0F8108069F3DC48C0F8108018E0D1F888
:104750000890D1F81880C844A8F10108B8FBF9F214
:10476000D1F8088008FB02F8D0F8109068F312091D
:10477000C0F81090D0F8108062F3DC48C0F81080C8
:1047800091F80380B8F1010F17D1DCF80880C8F365
:104790000028B8F1000F08D1D0F8008028F00058A8
:1047A00008F10058C0F8008007E0D0F8008028F039
:1047B000805808F18058C0F80080D0F8008028F0B8
:1047C000806808F18068C0F80080D0F8008028F088
:1047D000004808F10048C0F80080BDE8F0832DE9EA
:1047E000F84F06460F4692469B46D6F8008007F0E3
:1047F0007F0000EB400101EBC00106F10C0000EB73
:104800008104207808F5106101EB401508F5006976
:10481000C4F814A0C4F818B00020E061A06948B939
:104820000121286961F3DC40286128696FF31200D7
:1048300028612FE007F07F0090B9A168A069884245
:1048400001D9A068A061A169286961F312002861FB
:104850000121286961F3DC402861A069206219E028
:10486000A168A0690844401EB0FBF1F00090A16966
:10487000286961F3120028610098296960F3DC411E
:104880002961E078012805D1286920F0C04000F1B5
:1048900000502861E078012811D1D9F80800C0F350
:1048A000002030B9286820F0005000F10050286046
:1048B00005E0286820F0805000F1805028602868CA
:1048C00020F0806000F180602860286820F00040BF
:1048D00000F100402860E07801280AD0A06978B192
:1048E000D9F834002278012191400843C9F83400F6
:1048F00006E0208B83B2227840466169FFF7A7FA71
:10490000BDE8F88F70B505462C68B4F1A04F2BD1E7
:1049100080212046FFF71DFA182200212046FFF7CC
:104920001AFA142201212046FFF715FA1422022157
:104930002046FFF710FA142203212046FFF70BFA56
:10494000142204212046FFF706FA142205212046EE
:10495000FFF701FA142206212046FFF7FCF9142282
:1049600007212046FFF7F7F9174884422BD181151C
:104970002046FFF7EEF9402200212046FFF7EBF931
:10498000A21501212046FFF7E6F914220221204654
:10499000FFF7E1F9142203212046FFF7DCF9142286
:1049A00004212046FFF7D7F9142205212046FFF7FE
:1049B000D2F9142206212046FFF7CDF9142207214F
:1049C0002046FFF7C8F970BD0000044070B50446EA
:1049D0000D4605F01F012068FFF78EF870BD70B519
:1049E0000446002504F53376F088012803D02046DC
:1049F000FFF7B3FC1CE094F80803022802D0032858
:104A000011D109E00020C4F80C03012204F5437120
:104A10002046FFF782FC0AE0012204F5447120469B
:104A2000FFF77BFC03E02046FFF797FC00BF00BFC9
:104A3000284670BD2DE9F04704460027B8460025FA
:104A400040F2CE20005B0612082E7CD2DFE806F092
:104A50007B0409167B7B5F6BA1680868804705466D
:104A600076E094F8050320B9A168886A8047054676
:104A700003E0A16888688047054669E040F2CE20DF
:104A800010F80490B9F1030F23D009DCB9F1000F3D
:104A900010D0B9F1010F12D0B9F1020F2CD113E0EF
:104AA000B9F1040F1AD0B9F1050F1CD0B9F1EE0F0E
:104AB00022D11DE0A16808698047054625E0A1686C
:104AC00048698047054620E0A16888698047054617
:104AD0001BE0A168C8698047054616E0A168486ADE
:104AE0008047054611E0A168086A804705460CE04A
:104AF0002046FFF732FC08E0606804F533718268F5
:104B0000204690473846BDE8F08700BF20E094F883
:104B1000050320B9A16848688047054602E02046A1
:104B2000FFF71BFC14E094F8050340B9A168C868BE
:104B30008047054607206968487003E003E0204687
:104B4000FFF70BFC04E02046FFF707FC3846DAE7E6
:104B500000BFB5B12888A0B140F2D220005B80B17F
:104B6000298840F2D220005B814201DA288802E0E5
:104B700040F2D220005B8046424620466968FFF73B
:104B8000CCFB3846BFE710B5024601F07F0000EBD2
:104B9000400404EBC00402F5B67000EB8403D8694E
:104BA00010BD70B50446002594F80803022802D011
:104BB000032811D100E000BF94F80B0328B1D4F80A
:104BC000140340F00200C4F81403022204F54571F6
:104BD0002046FFF7A2FB03E02046FFF7BEFB00BF25
:104BE00000BF284670BD10B504466068006A20B159
:104BF00060680521026A2046904710BD10B5044642
:104C00006068006A20B160680621026A2046904709
:104C100010BD2DE9F0418046D8F8006000253046EF
:104C2000FEF786FF074646E007F00100002840D067
:104C300029463046FEF7FFFD044604F0010088B126
:104C400040F6340080590121A940884340F63401E0
:104C50008851012229463046FEF7E7FDE9B2404679
:104C6000FFF766F904F0080020B108222946304613
:104C7000FEF7DBFD04F0100020B11022294630467B
:104C8000FEF7D3FD04F0400020B140222946304613
:104C9000FEF7CBFD04F0020020B102222946304687
:104CA000FEF7C3FD04F0800018B129464046FFF727
:104CB00082F86D1C7F08002FB6D1BDE8F0812DE988
:104CC000F84304460D4616461F46DDF820804FF097
:104CD00000093046FEF788FF206029462046FEF78F
:104CE000FAFB40F22F30005D38B12068806B20F471
:104CF000801000F580102168886340F23130005D3B
:104D000038B12068806B20F4001000F50010216895
:104D1000886340F22530005D18B10121C4F81C13EE
:104D200002E00021C4F81C13009543463A46201DBA
:104D30002168FFF76FF94846BDE8F88330B50B46A8
:104D4000002100BF16E00A24B4EB107F05D93024FF
:104D500004EB107403F8114005E0412404EB1074D7
:104D60000A3C03F81140000100254C00641C1D554D
:104D70004C1CE1B29142E6DB30BD70B50446002523
:104D800004F5337694F80803012804D0022803D0F0
:104D9000032810D101E000BF00BF606804F5337143
:104DA0008268204690470546F08818B915B9204614
:104DB000FFF7C7FA03E02046FFF7CFFA00BF00BFB6
:104DC000284670BD2DE9F04105462E682F1D30465E
:104DD000FEF7C2FE0446706900F00100002864D1AD
:104DE00004F0020018B102213046FEF7B3FE04F0D1
:104DF000100010B1384600F034F904F4802010B1EE
:104E00003846FFF706FF04F4002010B1384600F0E2
:104E10004EF804F4805038B1384600F0C8F84FF42A
:104E200080513046FEF796FE04F0080030B1384657
:104E300000F074FA08213046FEF78CFE04F40050AE
:104E400038B13846FFF7B4FB4FF400513046FEF757
:104E500081FE04F4801038B13846FFF7C4FE4FF4E9
:104E600080113046FEF776FE04F4001038B1384663
:104E7000FFF7C4FE4FF400113046FEF76BFE04F05E
:104E8000004038B1384600F08DFA4FF0004130460E
:104E9000FEF760FE04F4006038B1384600F048FACE
:104EA0004FF400613046FEF755FEBDE8F0812DE974
:104EB000F04705462F6800243846FEF742FE80463C
:104EC00070E008F00100002869D021463846FEF75E
:104ED000A9FD064606F00100E0B101222146384650
:104EE000FEF79AFD07F5306000EB4410D0F808900B
:104EF00064B904EB440000EBC40105F5B67000EBA7
:104F00008100806910B92868FEF72BFBE1B22846C2
:104F1000FFF778F906F0080048B308222146384622
:104F2000FEF77AFD07F5306000EB4410D0F80890EA
:104F300009F40040B0F5004F05D14FF4004221467E
:104F40003846FEF769FDE1B22846FFF79BF995F870
:104F50000A0360B195F80A132868D0F8000861F3D5
:104F60000A102968C1F80008002085F80A0306F035
:104F7000100020B1102221463846FEF74DFD06F004
:104F8000200020B1202221463846FEF745FD06F0DC
:104F9000020020B1022221463846FEF73DFD641C86
:104FA0004FEA5808B8F1000F8BD1BDE8F0872DE922
:104FB000F0410646376807F500640025606820F078
:104FC000010060603046FFF79DFC10213846FEF777
:104FD00093FD00BF0BE0FF2107F5106000EB4510CB
:104FE000816007F5306000EB451081606D1C082D75
:104FF000F1D34FF0FF30A0614FF00110E061606924
:1050000020F00100401C6061606920F00200801CFB
:105010006061606920F0080008306061206920F05C
:105020000100401C2061206920F00200801C2061EA
:10503000206920F008000830206100213846FEF782
:1050400081FE3846FEF78DFA012086F80803706865
:10505000006A20B170680121026A30469047BDE8BD
:10506000F0812DE9F0470746D7F800800022102193
:105070004046FEF789FDD8F82060C6F30A15C6F34E
:10508000434906F00F0000EB400101EBC00107F5BA
:10509000B67000EB8104B9F1020F0ED1DDB1ABB2F5
:1050A00006F00F0240466169FEF737FE606928444A
:1050B0006061E0692844E0610DE0B9F1060F0AD1B2
:1050C000ABB206F00F0207F535714046FEF725FE3C
:1050D000E0692844E061012210214046FEF754FDBA
:1050E000BDE8F0872DE9F0410446002704F533754B
:1050F000A888F8B9E888E8B9A87800F07F0694F89D
:105100000803032803D12046FFF727F915E084F8A8
:105110000A6394F80A13204600F076F81EB10220C4
:1051200084F8080302E0012084F808032046FFF712
:1051300008F902E02046FFF710F93846BDE8F08193
:1051400070B50446002604F53375A8782D4908701B
:10515000A888002850D1E88800284DD194F8080389
:10516000022802D0032842D115E02648007870B109
:1051700024480078C4F81003032084F8080360680A
:105180000168204688472046FFF7DBF802E020460A
:10519000FFF7D7F82FE01B48007870B9022084F899
:1051A000080318480078C4F8100360684168204676
:1051B00088472046FFF7C5F818E012490978D4F867
:1051C000100388420FD160684168204688470D4827
:1051D0000078C4F8100360680168204688472046BC
:1051E000FFF7AFF802E02046FFF7ABF803E02046F8
:1051F000FFF7B3F800BF02E02046FFF7AEF83046F5
:1052000070BD00009D00002070B504460D46294683
:105210002068FEF797FD70BD70B50446002604F5C2
:105220003375688801280BD184F80B03606804F596
:1052300033718268204690472046FFF782F832E0BB
:10524000688802282CD1287950BBA888001206282B
:1052500018D2DFE800F01703070B0F13012084F8C2
:105260001C0318E0022084F81C0314E0032084F8D7
:105270001C0310E0042084F81C030CE0052084F8D3
:105280001C0308E0002084F81C0303262046FFF7D7
:1052900064F8304670BD00BF2046FFF752F802E0C8
:1052A0002046FFF75AF83046F4E72DE9F04104466E
:1052B0000D46276805F0800050B105F07F0000EB37
:1052C000400101EBC00104F10C0000EB810609E094
:1052D00005F07F0000EB400101EBC00104F5B67062
:1052E00000EB810631463846FEF7A7FB01207073BC
:1052F000BDE8F0810A7802704A7842708B78CA78EB
:1053000003EB022242800B794A7903EB022282806E
:105310008B79CA7903EB0222C280704710B504462C
:105320006068C06918B16068C1692046884710BDCF
:1053300070B50446256840F60800405900F00100A9
:1053400088B194F8080384F80903042084F808035A
:105350002046FFF722F96068006A20B160680221E8
:10536000026A2046904770BDF0B503460020022433
:105370001A460CE0451CA8B212F8017B2546661CB3
:10538000B4B24F5500272546661CB4B24F55157868
:10539000002DEFD1022505EB4005A8B208700325CA
:1053A0004D70F0BD70B50446256840F604004059C4
:1053B00020F0010140F6040041512068FEF7A6FCF0
:1053C00094F8090384F808036068006A20B16068F3
:1053D0000321026A2046904770BD000000000000D3
:1053E0000000010203040607080900000000010292
:1053F0000304000000000102030401020406080A7D
:105400000C0E10121416181A1C1E000000000000CA
:105410000000010203040607080901020406080A45
:105420000C0E10121416181A1C1E0000FF00FF00AC
:10543000FF00FF00FF00FF00FF00FF00FF00FF0074
:10544000000000000000000000000000000000005C
:105450000000F800000000000000333000000000F1
:10546000100C06100C0600000000000000000040B8
:10547000C07840C0784000043F04043F04040000AA
:105480007088FC08300000001820FF211E0000F08A
:1054900008F000E018000000211C031E211E00007F
:1054A000F00888700000001E212324192721101005
:1054B000160E0000000000000000000000000000C8
:1054C0000000E0180402000000000718204000005F
:1054D000020418E00000000040201807000000400F
:1054E0004080F0804040000202010F0102020000F3
:1054F0000000F0000000000101011F010101000097
:105500000000000000000080B070000000000000FB
:105510000000000000000000010101010101010084
:10552000000000000000000030300000000000001B
:1055300000000080601804006018060100000000F0
:10554000E010080810E000000F102020100F0000ED
:105550001010F8000000000020203F202000000074
:1055600070080808887000003028242221300000CC
:10557000300888884830000018202020110E0000D4
:1055800000C02010F8000000070424243F2400007D
:10559000F80888880808000019212020110E000052
:1055A000E0108888180000000F112020110E000064
:1055B000380808C83808000000003F00000000005C
:1055C00070880808887000001C222121221C00001D
:1055D000E010080810E0000000312222110F000046
:1055E0000000C0C0000000000000303000000000DB
:1055F000000080000000000000806000000000004B
:105600000080402010080000010204081020004023
:1056100040404040404000040404040404040000EE
:105620000810204080000000201008040201000043
:105630007048080808F0000000003036010000C083
:1056400030C828E810E0000718272423140B0000B6
:1056500000C038E0000000203C2302022738200868
:10566000F8888888700000203F202020110E00C09C
:105670003008080808380007182020201008000803
:10568000F808080810E000203F202020100F000834
:10569000F88888E8081000203F2020232018000800
:1056A000F88888E8081000203F200003000000C0B0
:1056B0003008080838000007182020221E020008C1
:1056C000F808000008F808203F210101213F2000D0
:1056D0000808F8080800000020203F2020000000F3
:1056E000000808F8080800C08080807F00000008DB
:1056F000F888C028180800203F200126382000081C
:10570000F8080000000000203F2020202030000882
:10571000F8F800F8F80800203F003F003F2000089C
:10572000F830C00008F808203F200007183F00E0CC
:105730001008080810E0000F10202020100F0008AB
:10574000F808080808F000203F210101010000E0EE
:105750001008080810E0000F18242438504F0008E3
:10576000F8888888887000203F2000030C302000D3
:10577000708808080838000038202121221C0018F1
:105780000808F8080818000000203F200000000862
:10579000F808000008F808001F202020201F00083B
:1057A00078880000C83808000007380E010000F8AB
:1057B0000800F80008F800033C0700073C03000855
:1057C0001868808068180820302C03032C302008CB
:1057D00038C800C83808000000203F200000001032
:1057E000080808C8380800203826212020180000A2
:1057F0000000FE020202000000007F404040000066
:105800000C30C000000000000000010638C000009D
:10581000020202FE000000004040407F0000000045
:10582000000402020204000000000000000000006A
:105830000000000000000080808080808080800068
:105840000202040000000000000000000000000050
:10585000008080808000000019242222223F20083E
:10586000F8008080000000003F112020110E000091
:1058700000008080800000000E1120202011000018
:105880000000808088F800000E112020103F2000CA
:1058900000808080800000001F222222221300004E
:1058A0008080F0888888180020203F202000000099
:1058B00000808080808000006B9494949360000846
:1058C000F8008080800000203F210000203F200061
:1058D000809898000000000020203F202000000059
:1058E0000000809898000000C08080807F00000841
:1058F000F8000080808000203F24022D302000002E
:105900000808F8000000000020203F202000008050
:1059100080808080808000203F20003F20003F80EA
:1059200080008080800000203F210000203F200078
:1059300000808080800000001F202020201F008029
:105940008000808000000080FFA12020110E000058
:1059500000008080808000000E112020A0FF808049
:105960008080008080800020203F212000010000F6
:1059700000808080808000003324242424190000CB
:105980008080E0808000000000001F202000008058
:1059900080000000808000001F202020103F208019
:1059A0008080000080808000010E300806010080A9
:1059B000800080008080800F300C030C300F0000CE
:1059C000808000808080000020312E0E31200080F9
:1059D0008080000080808080818E70180601000029
:1059E000808080808080000021302C2221300000C7
:1059F000000000807C020200000000003F404000E8
:105A0000000000FF00000000000000FF0000000098
:105A100002027C800000000040403F0000000000C7
:105A2000060101020204040000000000000000FF63
:105A300000FFFF00C8FF008CFF0046FF0000C80009
:105A4000FFFF00FFFF00C8FF008CFF00468C00FF37
:105A5000C800FFFF00FFFF00C8FF008C4600FF8C5E
:105A600000FFC800FFFF00FFFF00C80000FF460066
:105A7000FF8C00FFC800FFFF00FF0046FF0000FF93
:105A80004600FF8C00FFC800FF008CFF0046FF00AF
:105A900000FF4600FF8C00FF00C8FF008CFF00469F
:105AA000FF0000FF4600FF00FFFF00C8FF008CFF63
:105AB0000046FF0000FF0000D85A00080000002048
:105AC0004C03000028030008B05C00084C030020D1
:105AD0004C1300002018000811032A127A101080BD
